:100000000C945D000C9485000C9485000C94850084
:100010000C9485000C9485000C9485000C9485004C
:100020000C9485000C9485000C9485000C941304AA
:100030000C9485000C9485000C9485000C9485002C
:100040000C94C9030C9485000C9497030C947103D1
:100050000C9485000C9485000C9485000C9485000C
:100060000C9485000C94850000000008000201003B
:100070000003040700000000000000000000000072
:10008000250028002B0000000000240027002A0083
:10009000040404040404040402020202020203032E
:1000A0000303030301020408102040800102040836
:1000B0001020010204081020CF0411241FBECFEF2E
:1000C000D8E0DEBFCDBF11E0A0E0B1E0EEEBFFE095
:1000D00002C005900D92AA33B107D9F722E0AAE336
:1000E000B1E001C01D92A635B207E1F710E0CDE501
:1000F000D0E004C02197FE010E94D707CC35D1077C
:10010000C9F70E9466050C94DD070C94000090E08E
:10011000FC01EC55FF4F249180579F4FFC018491C7
:10012000882399F090E0880F991FFC01EA57FF4F50
:10013000A591B491FC01E458FF4F859194918FB73C
:10014000F894EC91E22BEC938FBF0895AF92BF929D
:10015000CF92DF92EF92FF920F931F93CF93DF9393
:100160006C017B018B01040F151FEB015E01AE18C2
:10017000BF08C017D10759F06991D601ED91FC91E4
:100180000190F081E02DC6010995892B79F7C50111
:10019000DF91CF911F910F91FF90EF90DF90CF9063
:1001A000BF90AF900895FC01538D448D252F30E012
:1001B000842F90E0821B930B541710F0CF96089574
:1001C00001970895FC01918D828D981761F0A28DA1
:1001D000AE0FBF2FB11D5D968C91928D9F5F9F7367
:1001E000928F90E008958FEF9FEF0895FC01918D1D
:1001F000828D981731F0828DE80FF11D858D90E08A
:1002000008958FEF9FEF0895FC01918D228D892F26
:1002100090E0805C9F4F821B91098F73992708950E
:1002200088E491E00E94040121E0892B09F420E098
:10023000822F089580E090E0892B29F00E94100120
:1002400081110C9400000895FC01A48DA80FB92F12
:10025000B11DA35ABF4F2C91848D90E001968F73EE
:100260009927848FA689B7892C93A089B1898C910D
:10027000837080648C93938D848D981306C002885C
:10028000F389E02D80818F7D80830895EF92FF9226
:100290000F931F93CF93DF93EC0181E0888F9B8DA9
:1002A0008C8D98131AC0E889F989808185FF15C063
:1002B0009FB7F894EE89FF896083E889F989808186
:1002C0008370806480839FBF81E090E0DF91CF9155
:1002D0001F910F91FF90EF900895F62E0B8D10E077
:1002E0000F5F1F4F0F731127E02E8C8D8E110CC0E6
:1002F0000FB607FCFACFE889F989808185FFF5CF31
:10030000CE010E942401F1CFEB8DEC0FFD2FF11DEA
:10031000E35AFF4FF0829FB7F8940B8FEA89FB896D
:1003200080818062CFCFCF93DF93EC01888D8823CB
:10033000B9F0AA89BB89E889F9898C9185FD03C048
:10034000808186FD0DC00FB607FCF7CF8C9185FF2D
:10035000F2CF808185FFEDCFCE010E942401E9CF4D
:10036000DF91CF91089590E0FC01E859FF4F24916F
:10037000FC01EC55FF4F3491FC01E057FF4FE49135
:10038000EE23C9F0222339F0233001F1A8F4213003
:1003900019F1223029F1F0E0EE0FFF1FE458FF4F72
:1003A000A591B4918FB7F894EC91611126C0309566
:1003B0003E233C938FBF08952730A9F02830C9F021
:1003C000243049F7809180008F7D03C080918000A8
:1003D0008F7780938000DFCF84B58F7784BDDBCFAC
:1003E00084B58F7DFBCF8091B0008F778093B00074
:1003F000D2CF8091B0008F7DF9CF3E2BDACF3FB7BF
:10040000F8948091400190914101A0914201B091F6
:10041000430126B5A89B05C02F3F19F00196A11DE9
:10042000B11D3FBFBA2FA92F982F8827BC01CD013E
:10043000620F711D811D911D42E0660F771F881F9D
:10044000991F4A95D1F708958F929F92AF92BF92CC
:10045000CF92DF92EF92FF924B015C010E94FF016D
:100460006B017C010E94FF016C197D098E099F09B7
:10047000683E734081059105A8F321E0821A910836
:10048000A108B10888EEC80E83E0D81EE11CF11C5B
:1004900081149104A104B10429F7FF90EF90DF903B
:1004A000CF90BF90AF909F908F9008952FB7F89402
:1004B00060913C0170913D0180913E0190913F011E
:1004C0002FBF08958F929F92AF92BF92FF920F938A
:1004D0001F93CF93DF93FC01F0808BE08F1508F41E
:1004E0004AC0828108E512E0081B110987FD1395B7
:1004F000000F111F000F111F8181C8E8D0E0C81B39
:10050000D10987FDD395CC0FDD1FCC0FDD1F4E0128
:100510000D2E000CAA08BB089801012E000C440BFC
:10052000550B281939094A095B09DB010E94B407F8
:1005300024EB30E040E050E00E948A07820E931ED8
:10054000A41EB51E8C169D062CF0E801801691069F
:100550000CF4E4012297CC0FDD1F2FB7F8948F2DF8
:1005600090E0FC01EE0FFF1FE80FF91FE55DFD4F66
:10057000D283C1832FBFDF91CF911F910F91FF9045
:10058000BF90AF909F908F9008951F93CF93DF936C
:10059000EC01162F88818C3008F04DC0862F0E9408
:1005A00087008881282F30E0F901EE0FFF1FE20F4E
:1005B000F31FE55DFD4F1F736081607C612B6083DD
:1005C00019821A822CE0622F0E94CB07829FB00111
:1005D000112430E020E0AB01420F531FFA01EE0F6F
:1005E000FF1FE40FF51FE55DFD4F908196FD16C0DE
:1005F0002F5F3F4F2C30310571F781110FC01092E2
:10060000800082E080938100109285001092840027
:10061000B19A80916F00826080936F00E8818E2F85
:1006200090E0FC01EE0FFF1FE80FF91FE55DFD4FA5
:100630008081806480838881DF91CF911F910895AC
:10064000FC0101900020E9F73197AF01481B590BDD
:10065000BC0188E491E00C94A6008F929F92AF9227
:10066000BF920F931F93CF93DF93CDB7DEB7A197C0
:100670000FB6F894DEBF0FBECDBF19A2423008F40A
:100680004AE08E010F5D1F4F842E912CB12CA12CBE
:10069000A50194010E946807E62FB901CA01EA305A
:1006A000F4F4E05DD801EE938D01232B242B252B50
:1006B00079F790E080E0109719F0CD010E942003B7
:1006C000A1960FB6F894DEBF0FBECDBFDF91CF91DC
:1006D0001F910F91BF90AF909F908F900895E95C0C
:1006E000E1CF1F920F920FB60F9211242F933F93D9
:1006F0004F935F936F937F938F939F93AF93BF932A
:10070000EF93FF9388E491E00E942401FF91EF9121
:10071000BF91AF919F918F917F916F915F914F9119
:100720003F912F910F900FBE0F901F9018951F9221
:100730000F920FB60F9211242F938F939F93EF93E5
:10074000FF93E0915801F09159018081E0915E01A1
:10075000F0915F0182FD1BC09081809161018F5FEC
:100760008F7320916201821741F0E0916101F0E006
:10077000E85BFE4F958F80936101FF91EF919F9110
:100780008F912F910F900FBE0F901F901895808121
:10079000F4CF1F920F920FB60F9211242F933F9315
:1007A0008F939F93AF93BF9380913C0190913D01B4
:1007B000A0913E01B0913F0130913B0123E0230F16
:1007C0002D3758F50196A11DB11D20933B01809353
:1007D0003C0190933D01A0933E01B0933F01809175
:1007E000400190914101A0914201B09143010196D5
:1007F000A11DB11D8093400190934101A09342013E
:10080000B0934301BF91AF919F918F913F912F91F1
:100810000F900FBE0F901F90189526E8230F029699
:10082000A11DB11DD2CF1F920F920FB60F921124AE
:100830002F933F934F935F936F937F938F939F93E8
:10084000AF93BF93CF93DF93EF93FF9380913A01E0
:10085000C0914F02D0E087FF24C010928500109213
:10086000840080913A018F5F80933A0180913A0130
:10087000082E000C990B8C179D0724F480913A01E7
:100880008C30C4F18091840090918500049680346E
:100890009C4908F47AC08091840090918500049668
:1008A00076C080913A01082E000C990B8C179D0799
:1008B000C4F6E0913A018E2FEE0F990BFC01EE0F7A
:1008C000FF1FE80FF91FE55DFD4F808186FFC9CF4F
:1008D000E0913A018E2FEE0F990BFC01EE0FFF1FF6
:1008E000E80FF91FE55DFD4F808160E08F730E9486
:1008F000B301B7CF2091840030918500E0913A0197
:100900008E2FEE0F990BFC01EE0FFF1FE80FF91F62
:10091000E55DFD4F81819281820F931F9093890045
:1009200080938800E0913A018E2FEE0F990BFC0125
:10093000EE0FFF1FE80FF91FE55DFD4F808186FF79
:1009400011C0E0913A018E2FEE0F990BFC01EE0FD2
:10095000FF1FE80FF91FE55DFD4F808161E08F7398
:100960000E94B301FF91EF91DF91CF91BF91AF91C1
:100970009F918F917F916F915F914F913F912F91B7
:100980000F900FBE0F901F90189580E49CE99093F4
:100990008900809388008FEF80933A01E3CF109213
:1009A0004B0110924A0188EE93E0A0E0B0E0809302
:1009B0004C0190934D01A0934E01B0934F0184E000
:1009C00091E0909349018093480185EC90E09093E9
:1009D00055018093540184EC90E0909357018093EB
:1009E000560180EC90E0909359018093580181EC7E
:1009F00090E090935B0180935A0182EC90E0909399
:100A00005D0180935C0186EC90E090935F018093A0
:100A10005E011092610110926201109263011092C6
:100A200064011092EB011092EC011092ED01109212
:100A3000EE011092EF011092F0011092F10110926C
:100A4000F2011092F3011092F4011092F50110924C
:100A5000F6011092F7011092F8011092F90110922C
:100A6000FA0180914F028C3048F591E0980F9093F5
:100A70004F028093530290E0FC01EE0FFF1FE80F3E
:100A8000F91FE55DFD4F88EB9BE0928381838091A8
:100A90004F028C30B8F491E0980F90934F028093FE
:100AA000500290E0FC01EE0FFF1FE80FF91FE55D1B
:100AB000FD4F88EB9BE09283818308958FEF8093B5
:100AC0005302E5CF8FEF809350020895789484B558
:100AD000826084BD84B5816084BD85B5826085BD3A
:100AE00085B5816085BD80916E00816080936E00C8
:100AF00010928100809181008260809381008091BA
:100B0000810081608093810080918000816080936A
:100B100080008091B10084608093B1008091B0002A
:100B200081608093B00080917A00846080937A0025
:100B300080917A00826080937A0080917A0081604F
:100B400080937A0080917A00806880937A00109276
:100B5000C1001092270210922802109229021092CE
:100B60002A021092E7011092E8011092E901109216
:100B7000EA010E9456026B017C014B015C0128EBEB
:100B8000820E2BE0921EA11CB11C0E9456026C1515
:100B90007D058E059F0528F086169706A806B906DE
:100BA000A0F768EE73E080E090E00E942402E091FC
:100BB0005801F091590182E08083E0915401F09155
:100BC00055011082E0915601F091570180E1808338
:100BD00010926001E0915C01F0915D0186E08083FC
:100BE000E0915A01F0915B01808180618083E09106
:100BF0005A01F0915B01808188608083E0915A0105
:100C0000F0915B01808180688083E0915A01F091CE
:100C10005B0180818F7D80830E9456026093E70193
:100C20007093E8018093E9019093EA0182E191E0F9
:100C30000E9420030E9456026B017C014B015C0163
:100C40003AE0830E911CA11CB11C0E9456026C1547
:100C50007D058E059F0528F086169706A806B9061D
:100C6000A0F781E08093FB0165E070E083E592E00E
:100C70000E94C5026AE570E083E592E00E9462028C
:100C800066E070E080E592E00E94C5026DE770E0EA
:100C900080E592E00E94620282E00E94870061E0AB
:100CA00082E00E94B30164E670E080E090E00E9480
:100CB000240260E082E00E94B301C0E0D0E084EF53
:100CC000882E99249394A12CB12C0E945602672B54
:100CD000682B692B09F4E0C00E945602C0904401C1
:100CE000D0904501E0904601F09047016C157D05DC
:100CF0008E059F0508F4E3C0C0904401D0904501E3
:100D0000E0904601F09047019B01AC012C193D0990
:100D10004E095F0969017A013AEFC316D104E10473
:100D2000F10408F4C1C060934401709345018093BD
:100D30004601909347018092F3019092F401A092B2
:100D4000F501B092F6011092F7011092F80110929D
:100D5000F9011092FA018091EB019091EC01A091C0
:100D6000ED01B091EE018093EF019093F001A0931B
:100D7000F101B093F2010E9456026093EB0170936F
:100D8000EC018093ED019093EE010E945602609376
:100D9000E7017093E8018093E9019093EA010E94D2
:100DA00056026B017C0183E291E00E9420034AE03D
:100DB00061E070E080E090E00E942D038AE291E023
:100DC0000E9420034AE0C701B6010E942D038CE275
:100DD00091E00E9420038091EB019091EC01A091A1
:100DE000ED01B091EE01A7019601281B390B4A0BCA
:100DF0005B0BCA01B9014AE00E942D038CE291E02D
:100E00000E9420036091EB017091EC018091ED0153
:100E10009091EE01C090EF01D090F001E090F101CF
:100E2000F090F2016C197D098E099F094AE00E9439
:100E30002D038EE291E00E9420030E9456024AE0B8
:100E40000E942D0380E391E00E94200387E391E05C
:100E50000E9420030E9456022B013C017C016B0181
:100E600035E0C30ED11CE11CF11C0E945602641532
:100E700075058605970528F0C616D706E806F90613
:100E8000A0F70E9456026093EB017093EC018093EF
:100E9000ED019093EE0108C00E9456026230710588
:100EA0008105910508F018CF209709F40ECF0E9414
:100EB0001001882309F409CF0E94000006CF609337
:100EC000440170934501809346019093470114CFEC
:100ED000A1E21A2EAA1BBB1BFD010DC0AA1FBB1F3E
:100EE000EE1FFF1FA217B307E407F50720F0A21BB0
:100EF000B30BE40BF50B661F771F881F991F1A941D
:100F000069F760957095809590959B01AC01BD0146
:100F1000CF010895052E97FB1EF400940E94A107AF
:100F200057FD07D00E94680707FC03D04EF40C94CD
:100F3000A10750954095309521953F4F4F4F5F4FFA
:100F4000089590958095709561957F4F8F4F9F4F35
:100F500008950E94BC07A59F900DB49F900DA49F7B
:100F6000800D911D11240895B7FF0C94A9070E94CC
:100F7000A907821B930B0895A29FB001B39FC001E4
:100F8000A39F700D811D1124911DB29F700D811DB5
:100F90001124911D0895991B79E004C0991F96179B
:100FA00008F0961B881F7A95C9F780950895EE0F73
:0E0FB000FF1F0590F491E02D0994F894FFCFF7
:100FBE00000000004601A600D30093010401E200E8
:100FCE00F600564D4450565F317C315F564D4450BD
:100FDE00560A00564D4450455F003A323A007C00A6
:0A0FEE005F564D445045000D0A0007
:107E0000112484B714BE81FFF0D085E080938100F7
:107E100082E08093C00088E18093C10086E0809377
:107E2000C20080E18093C4008EE0C9D0259A86E02C
:107E300020E33CEF91E0309385002093840096BBD3
:107E4000B09BFECF1D9AA8958150A9F7CC24DD24C4
:107E500088248394B5E0AB2EA1E19A2EF3E0BF2EE7
:107E6000A2D0813461F49FD0082FAFD0023811F036
:107E7000013811F484E001C083E08DD089C08234E0
:107E800011F484E103C0853419F485E0A6D080C0E4
:107E9000853579F488D0E82EFF2485D0082F10E0AE
:107EA000102F00270E291F29000F111F8ED06801E7
:107EB0006FC0863521F484E090D080E0DECF843638
:107EC00009F040C070D06FD0082F6DD080E0C81688
:107ED00080E7D80618F4F601B7BEE895C0E0D1E017
:107EE00062D089930C17E1F7F0E0CF16F0E7DF06D8
:107EF00018F0F601B7BEE89568D007B600FCFDCFD4
:107F0000A601A0E0B1E02C9130E011968C91119780
:107F100090E0982F8827822B932B1296FA010C0160
:107F200087BEE89511244E5F5F4FF1E0A038BF0790
:107F300051F7F601A7BEE89507B600FCFDCF97BE46
:107F4000E89526C08437B1F42ED02DD0F82E2BD052
:107F50003CD0F601EF2C8F010F5F1F4F84911BD097
:107F6000EA94F801C1F70894C11CD11CFA94CF0C13
:107F7000D11C0EC0853739F428D08EE10CD085E9AC
:107F80000AD08FE07ACF813511F488E018D01DD067
:107F900080E101D065CF982F8091C00085FFFCCF94
:107FA0009093C60008958091C00087FFFCCF809118
:107FB000C00084FD01C0A8958091C6000895E0E648
:107FC000F0E098E1908380830895EDDF803219F02E
:107FD00088E0F5DFFFCF84E1DECF1F93182FE3DFCA
:107FE0001150E9F7F2DF1F91089580E0E8DFEE27F6
:047FF000FF270994CA
:027FFE00040479
:0400000300007E007B
:00000001FF